:020000041000EA
:1000000000B5324B212058609868022188439860DF
:10001000D860186158612E4B002199600221596106
:100020000121F02299502B49196001219960352056
:1000300000F044F80222904214D00621196600F024
:1000400034F8196E01211966002018661A6600F04E
:100050002CF8196E196E196E052000F02FF8012189
:100060000842F9D1002199601B49196000215960AB
:100070001A491B48016001219960EB211966A021F2
:10008000196600F012F800219960164914480160C1
:100090000121996001BC002800D000471248134993
:1000A000086003C880F30888084703B5996A0420EC
:1000B0000142FBD001200142F8D103BD02B5186610
:1000C0001866FFF7F2FF186E186E02BD00000240BE
:1000D000000000180000070000035F00212200005C
:1000E000F4000018222000A00001001008ED00E03C
:1000F00000000000000000000000000074B24E7A12
:1001000000200420F7010010C3010010C5010010F9
:10011000C1010010C1010010C1010010C101001097
:10012000C1010010C1010010C101001055DF001015
:10013000C1010010C1010010B1DF0010F5DF001097
:10014000CD010010CD010010CD010010CD01001037
:10015000CD010010CD010010CD010010CD01001027
:10016000CD010010CD010010CD010010CD01001017
:10017000CD010010CD010010CD010010CD01001007
:10018000CD010010CD010010CD010010CD010010F7
:10019000CD010010CD010010CD010010CD010010E7
:1001A000CD010010CD010010CD010010CD010010D7
:1001B000CD010010CD010010CD010010CD010010C7
:1001C00000BE00BE00BE00BE00BE00BEEFF3058054
:1001D000103800BEF2EB8871241B0210441B021081
:1001E0003402001090A31AE700201F49086006C8D7
:1001F00081F3088810471D48006800282FD10DA4FE
:100200000ECC002902D000F012F8F9E71849194A7B
:10021000002000E001C19142FCD1174988471749ED
:1002200088471749884700BEFDE701C901C29A42C5
:10023000FBD37047441B0210C0000020443500204F
:10024000C84F021000000420640104202C51021049
:10025000001004200010042000000000704709482E
:1002600006F0FAFD0047000008ED00E0000000D0B5
:1002700048350020E0560020D15600109926001085
:10028000055800105756000006005250ABB360539B
:10029000A8E3011006005250861C0302B8E30110C7
:1002A000060052505422A29DC4E301100500525092
:1002B000DE65F4682C510210F8B5C04610B5064C46
:1002C0002378002B07D1054B002B02D0044800E017
:1002D00000BF0123237010BDC03A002000000000C1
:1002E000B0CF0110044B10B5002B03D003490448D4
:1002F00000E000BF10BDC04600000000C43A00206E
:10030000B0CF0110F0B55746DE464E464546E0B543
:1003100083B084469A4610000191002B26D000231A
:100320000024994607260125002A1FD04B462A00A3
:10033000D90833409A4053B2984600234143614460
:10034000019F1A19D208BA5C37001F403A41154282
:1003500003D04746CA5C3A43CA5401339842EFD1AE
:1003600001239846C1442418CA45DFD103B0F0BC2C
:10037000BB46B246A946A046F0BDC04603000833BE
:1003800003600023436003727047C04610B5034BFF
:1003900008001B6899681BF0B3F810BDD02C002032
:1003A00010B5034B0A201B6899681BF037F810BD85
:1003B000D02C00200EB400B582B003A901C9019170
:1003C00008F0B6FB02B008BC03B01847F0B5DE4633
:1003D00057464E464546E0B5ABB01CAF382200212B
:1003E000380008F047F93800FFF7C8FF22A8FFF7E8
:1003F000C5FF7C4E0A20336899681BF00FF87A4AD3
:10040000336892460121032250469B681BF0AAFBE9
:10041000336898681AF01EFF08F0FAFB3423FB5C7F
:100420000500C4B2002B14D0442C00D188E20DD8B2
:10043000412C00D170E2432C04D13B6B7A6893428B
:1004400000D28CE234230022FA54E1E75B2CDFD0A7
:10045000F8E71B2C00D910E2002CD9D01B2CD7D8E0
:10046000624BA4001B599F463900404612F052FED1
:100470005F4B99461B68002B00D1E2E100245D4DE3
:1004800006E04B461B6801340C35A34200D8D8E186
:100490004046296812F066FF0028F2D163001C195B
:1004A000544BA4009C46644459463800A3689847BE
:1004B0005B46186812AB984204D05B4699680131DC
:1004C00008F0ECF8434618680CAB984204D0434659
:1004D0009968013108F0E2F800233A687B601370F4
:1004E0003B6333680A2099681AF098FF3368032247
:1004F000012150469B681BF035FB89E721200CF059
:1005000009FD33680A2099681AF088FF33680322CE
:10051000012150469B681BF025FB336898681AF050
:1005200099FE75E734230122FA5471E77B68002BAA
:10053000D7D033680A2099681AF070FF0AAB984642
:100540000CAB42460A9300235360137210AA9346E1
:1005500012AA10925A463900137222A8536012F060
:10056000D9FD3B681A0003937B68D5189A10032BBA
:1005700000DCCEE22C1F9200A31A029316E0A078B2
:100580001BF000FB002800D1D4E260781BF0FAFADF
:10059000002800D1D2E220781BF0F4FA002800D124
:1005A000D2E2029B043CA34200D1B2E2231DE078D8
:1005B000994625001BF0E6FA0028E0D14D46039B42
:1005C000EC1A00237C602B703B6899467B681A000C
:1005D0004A4402929D10032B00DCF3E1AD004C462F
:1005E0004D441FE0D02C0020B0D7011080D801105E
:1005F000E82B002064DF011060781BF0C3FA0028AC
:1006000000D195E2A0781BF0BDFA002800D199E254
:10061000E0781BF0B7FA002800D199E20434A54233
:1006200000D1D0E120781BF0ADFA0028E4D1029B84
:10063000A34200D1D2E14B4600213800E21A12F069
:10064000FDFD3900380012F065FD0123002238005D
:10065000D64912F069FE03008146013300D103E759
:100660003A687B6818AD040016950292984200D94A
:100670001C00029B002B00D156E204940F2C00D9E1
:100680001EE2012C00D01AE358211B7802AA52184E
:1006900013702B00002217941A5543461868169BB6
:1006A000AB4200D123E20CAA904200D1AAE241461B
:1006B00042460B60179B926802930B93189B0C9316
:1006C000002800D1A5E2169018920023179303701A
:1006D0001698A84204D0189B591C029307F0DEFF1D
:1006E0004C467B6801349C4200D9FDE23A6816957D
:1006F0009146A1441C1B04940F2C00D9B7E1012C96
:1007000000D0AEE14B4658211B7802AA5218137054
:100710002B00002217941A555B461868169BAB42B3
:1007200000D1BBE112AA904200D160E259465A467C
:100730000B60179B926802931193189B12930028E9
:1007400000D15BE21690189200231793037016985D
:10075000A84203D01899013107F0A0FF5B465A4622
:100760001B68526803939D189310032A00DC33E240
:100770002C1F9B00E31A994615E0A0781BF002FAA3
:10078000002800D149E260781BF0FCF9002800D174
:100790004DE220781BF0F6F9002800D14BE2043C32
:1007A000A14500D118E2231DE078250002931BF03B
:1007B000E9F90028E1D1029D039BEC1A5B465C60DD
:1007C00000232B705B461B6899465B465B681A00EA
:1007D0004A4402929D10032B00DCEEE1AD004C4632
:1007E0004D4415E060781BF0CDF9002800D118E2E7
:1007F000A0781BF0C7F9002800D114E2E0781BF0C4
:10080000C1F9002800D11AE20434AC4200D1D5E18C
:1008100020781BF0B7F90028E4D1029BA34200D155
:10082000D4E14B4600215846E21A12F007FD594622
:10083000584612F06FFC5E4B99461B68002B00D0A7
:100840001CE63368092201219B685A481BF08AF98B
:100850002EE67F2C00D0DBE57B68002B03D03B6BC2
:10086000002B00D0C5E0072008F02EF8D0E50023CB
:100870003A687B6013703B63CAE57E2CE9D81F2C75
:1008800000D8C5E57B68396B9946994272D000D98A
:1008900020E2012300220094380012F0EBFC3368C0
:1008A000042201219B6844481BF05CF93A6B7C6888
:1008B000A24200D909E23B6806AD99188846049522
:1008C000002900D1BCE0A41A16940F2C00D9A8E08E
:1008D000012C00D087E043461B7802AA13742A003B
:1008E00000230594135533689968049B18000293FC
:1008F0001AF006FE0498A84203D00699013107F0C9
:10090000CDFE3B6B032201333B63336801219B68BF
:100910002A481BF027F97BE57B68002B00D091E586
:10092000239B002B00D18DE5380022A912F0F2FBA9
:100930007B6838683B63336899681AF0E1FD81E5AC
:100940003B6B002B00D17DE5336803229B680121BE
:100950001A481BF007F93B6B013B3B6372E53368B8
:1009600003229B68012116481BF0FCF83B6B013306
:100970003B6367E501234B4498463B681EAA9342BC
:1009800000D152E1BA68904561D84A469C5443462A
:1009900041467B60FF2000233A682840535407F00B
:1009A00093FF3B6B01333B6332E5C0465C1302109F
:1009B000E82B002074D801106CD80110B8D70110B2
:1009C000B4D701104C46029B1B1B022B00D1C8E080
:1009D000032B00D1BEE0012B00D1C9E000234A4621
:1009E0007B6013702DE62A00002C00D178E72800E8
:1009F0001FE0336801219B680722BE481BF0B2F854
:100A00003B6B591E7B68994200D968E15A1A8B42A8
:100A100000D00122380012F011FC3B6B013B3B631C
:100A2000F6E4002216A904A812F056FB169B0490C7
:100A300006932200414607F023FE169C049A4FE7D6
:100A40001B19002B00D13EE7AB4812F027FA012317
:100A50000022009349460023380012F095FB3B68C2
:100A600093E72B00002C00D153E6280007E000227A
:100A700004A916A812F030FB049B169018932200CC
:100A8000494607F0FDFD0022049C169B17941A5559
:100A90005B461868169BAB4200D043E6179A002AC3
:100AA00005D0012A00D104E1290007F0E9FD5A46EA
:100AB000179B5946536000220968CA54169843E6AA
:100AC000002204A916A812F007FB049B16901893A5
:100AD0002200029907F0D4FD0022049C169B179473
:100AE0001A5543461868169BAB4200D0DBE5179AAF
:100AF000002A05D0012A00D1D5E0290007F0C0FD69
:100B00004246179B4146536000220968CA54169812
:100B1000DBE5039BEC1A022C3AD0032C2FD0012CDE
:100B200041D01D0000244CE5002C8DD12B00B1E5F7
:100B300001347CE5039B0335EC1A42E5039B023547
:100B4000EC1A3EE5023472E5039B0135EC1A38E5F8
:100B500003346CE520781BF015F8002800D166E519
:100B6000013420781BF00EF8002800D15FE5013435
:100B700020781BF007F8002800D02FE757E56B1E00
:100B8000187899461AF0FEFF002800D119E54D4665
:100B90006B1E187899461AF0F5FF039BEC1A002893
:100BA00000D10EE54D466B1E18781AF0EBFF0028B9
:100BB00000D104E50024039D03E54C46029B1B1B6A
:100BC000022B45D0032B3CD0012B48D000235A46A2
:100BD00053604A4613702AE6039BEC1A022C4DD050
:100BE000032C42D0012C54D01D000024E6E55A46C7
:100BF0001360179B02931193189B1293169518ADCF
:100C00002800A1E542461360179B02930B93189BA3
:100C10000C93169518AD280057E5039B0335EC1A85
:100C2000CCE50134F9E50234F7E50F22ABE6039B8E
:100C30000235EC1AC2E5039B0135EC1ABEE503341C
:100C4000EBE520781AF09EFF002800D1E5E501349D
:100C500020781AF097FF002800D1DEE501342078D3
:100C60001AF090FF0028B1D1D7E56B1E187899468D
:100C70001AF088FF002800D1A0E54D466B1E1878B9
:100C800099461AF07FFF039BEC1A002800D195E5E6
:100C90004D466B1E18781AF075FF002800D18BE5C1
:100CA0000024039D8AE502AB57329B181B78037022
:100CB00026E702AB57329B181B780370F7E62B0030
:100CC000002C00D1E6E4280002E723000B490C4881
:100CD00012F014F90A000A480A4912F00FF90A0042
:100CE0000748094912F00AF922000449044812F0A1
:100CF00005F9C04638D80110BCD70110E8D701105B
:100D000000D8011054D8011040D801100368F0B584
:100D10004E46994657464546DE4614004A464368C5
:100D2000E0B50F00991AC9108A00521898461301AD
:100D3000D2181302D2181304D3185B00624A5B184E
:100D4000824683B0934200D1BBE00122002B03D046
:100D50005A00934200D9A9E04B46FD1A002A00D060
:100D600093E01823009300239B4601935D442800E1
:100D700026002368083008362860B34200D19BE083
:100D80002B60A368AB60636826606B6000236360C0
:100D90002372B9452ED04E465C464D46083609E0D2
:100DA0002360AB681836A3606B681835636018342D
:100DB000BD4210D02000083020602B68B342EFD134
:100DC0003100102207F05CFC6B6818356360183640
:100DD0001834BD42EED13B004A46183B9B1ADA0854
:100DE0003A4B5343DB00DB0802335A00D318DB00D5
:100DF0005B440093B84530D03E003D00009C08366F
:100E000009E02360AB681836A3606B68183563602F
:100E10001834454510D020002B6808302060B342BC
:100E2000EFD13100102207F02BFC6B68183563609E
:100E3000183618344545EED14346DF1B183F234B87
:100E4000FF087B43DB00DB0801335A00D318009A0C
:100E5000DB0094469C44634600934B46002B06D02F
:100E600053464A469B684846991A07F017FC534672
:100E70005A461A60009A5A60019A9A6003B0F0BC10
:100E8000BB46B246A946A046F0BD0F4B9A4211D8C8
:100E90005600B618F600300007F0F8FB3300834622
:100EA0005B44019318235B4400935FE74B46084E75
:100EB000FD1AF0E71A00EBE71022310007F0E0FB23
:100EC00061E7044812F002F855555505ABAAAA0A85
:100ED000F8FFFF7FF0D80110F0B557464E46454663
:100EE000DE460023E0B5036043608360714B8FB042
:100EF000994604AB06000F0000259A4601232A00FC
:100F00004946380012F010FA0400431C46D08542CE
:100F100001D3651CF2E77B68421B9D4200D9C4E007
:100F20005146029139688846A8445D1B954200D914
:100F300015004346002B4CD008950F2D39D8012DB4
:100F400000D0A1E01B7802AA137252460023039539
:100F500053557568B3689D4211D028000830286049
:100F6000029B534564D02B60049B0193AB60039BB1
:100F70006B6001937368651C18337360BEE73000C3
:100F8000290002AAFFF7C2FE02985045C1D0049B77
:100F9000651C591C019307F081FBAFE77B689D42FC
:100FA0001BD330000FB0F0BCBB46B246A946A046EA
:100FB000F0BD08AB1900002202A812F08DF8089BC2
:100FC000029004932A00414607F05AFB089D029ABA
:100FD000BCE7002D61D15246B8E70AAA90460892B4
:100FE0003A685419002C55D05D1B02950F2D39D845
:100FF000012D22D1237808AA9346137242465B46FC
:101000005D60002353557468B3689C421CD0200077
:1010100008302060089B434542D023605B469B68B4
:10102000A3605B465B686360736818337360B8E7FE
:101030001022514607F024FB99E708AB42469B4635
:10104000002DDCD0404618E030005A462100FFF762
:101050005DFE08984045A4D05B469968013107F0D1
:101060001DFB9EE708AB9B460022180002A912F068
:1010700033F85B46029A08909A602A00210007F034
:10108000FFFA029D089ABAE75246002D00D15DE7AB
:10109000504697E7D218002AA6D0074811F0FEFE66
:1010A0001022414607F0ECFABBE72A000349044846
:1010B00011F024FF5C130210BCD70110E8D7011017
:1010C00000D8011010B5040086B001A8112108F065
:1010D00069F8200001AA0C49FFF76CF920000B4ABF
:1010E0000B49FFF767F920000A4A0B49FFF762F93D
:1010F00020000A4A0A49FFF75DF92000094A0A4917
:10110000FFF758F906B010BD0CD901101CD9011019
:1011100028D901103CD9011044D9011058D9011027
:1011200060D9011074D901107CD9011010B50122C9
:101130000400044B04491A70FFF73CF92000FFF744
:101140002FF910BDCE5600208CD90110F0B5D6462F
:101150004F4646462249C0B50500FFF72BF9214B03
:10116000214C9A46214B27009946214B214E984607
:101170003C37310028002278FFF71CF96378002BF8
:1011800022D1A378002B26D1E378002B0AD12800A6
:101190000434FFF705F9BC42EBD1E0BCBA46B146D6
:1011A000A846F0BD41462800FFF704F904342800A2
:1011B000FFF7F6F8BC42F0D0310028002278FFF7A4
:1011C000F9F86378002BDCD051462800FFF7F2F8DD
:1011D000A378002BD8D049462800FFF7EBF8D3E7D7
:1011E000DCD90110ECD9011080DC0110F4D9011018
:1011F00008DA0110E8D9011030B50C0083B0050001
:101200000A22206801A91BF09BFBFF281FD8019B25
:101210001B78002B1BD1C3B207285CD0102B1FD129
:10122000344C0434152853D016281FD1314C1034B7
:10123000002C58D0304B1B78002B02D1E378002BC8
:101240004BD16378002B08D001F066F905E02268E5
:1012500028002A49FFF7AEF80024200003B030BD73
:1012600000241128DED1234C0834E1E7172802D1ED
:10127000204C1434DCE71A2802D11E4C1834D7E76E
:101280001B2802D11B4C1C34D2E71C2802D1194C5C
:101290002034CDE71D2802D1164C2434C8E7182885
:1012A00002D1144C2834C3E7192802D1114C2C3434
:1012B000BEE7122802D10F4C3034B9E7132802D10F
:1012C0000C4C3434B6E71428B2D10A4C3834B1E7A8
:1012D000084C0C34ACE7074CACE728000849FFF792
:1012E00069F80024B9E7020006492800FFF762F810
:1012F000B3E7C04680DC0110CE56002014DA01109E
:101300003CDA011028DA01100968F8B51831040038
:10131000FFF772FF051E1FD00126007802F0E4FAE5
:1013200033002878D02783403F060022BB6201218A
:1013300002F0B0FA09492000FFF73CF819200BF041
:10134000E9FD7A682B782000DA4005493240FFF742
:1013500031F82000FFF724F8F8BDC0468CDA011000
:1013600094DA011070B50B6882B004000D000A22F7
:10137000186B01A91BF0E4FA0600FF2826D8019B90
:101380001B78002B22D1012820DC2968200018318D
:10139000FFF732FF051E22D08378002B21D0012ECB
:1013A0002CD0007802F0A0FA01232A789340D022B2
:1013B00012065362D02212069361200032001349B4
:1013C000FEF7F8FF2000FEF7EBFF08E02B68200097
:1013D0001A6B0F49FEF7EEFF2000FEF7E1FF02B0A7
:1013E00070BD007802F080FA01232A789340D02261
:1013F00012065362002EDDD05361DEE7200005495E
:10140000FEF7D8FF2000FEF7CBFFE8E7DCDA01109B
:1014100098DA0110ACDA011030B587B0040003A8E7
:10142000FFF75AFD049B0398984200D173E01B1A02
:10143000182B40D0049B01931B1A482B46D0049BC9
:1014400001931B1A302B4CD0049B01931B1A182BB1
:1014500052D020004949FEF7ADFF20004849FEF771
:10146000A9FF20004749FEF7A5FF20004649FEF7E7
:10147000A1FF20004549FEF79DFF039C049DAC425F
:101480000CD0230020680833984210D0A368183489
:10149000591C07F003F9A542F3D1039D002D04D098
:1014A00005992800491B07F0F9F807B030BD18343A
:1014B000A542E6D1F1E7364911F054FF00285BD090
:1014C000049B039801931B1A482BB8D1314911F0A2
:1014D00049FF00284ED0049B039801931B1A302B20
:1014E000B2D12D4911F03EFF002841D0049B039852
:1014F00001931B1A182BACD1284911F033FF03229A
:101500000028A6D153009B18254A9B0020009B5819
:1015100003A9984713E020001849FEF74BFF20006D
:101520001749FEF747FF20001649FEF743FF20004A
:101530001549FEF73FFF20001449FEF73BFF039CCF
:10154000049DAC42AAD023002068083398420BD0F7
:10155000A3681834591C07F0A1F8AC429DD02300B1
:10156000206808339842F3D11834A542EBD194E7B0
:101570000222C7E70122C5E70022C3E700DB011012
:101580000CDB011040DB011084DB0110C8DB011013
:10159000F0DA0110F8DA0110FCDA011038DC011081
:1015A00050DC0110F0B557464E464546DE46002356
:1015B000E0B585B09A466B469F1D00239B46D0231D
:1015C00096261B06040089469846760002AD05E083
:1015D0005346C72B4CDC013E002E49D001200BF0B6
:1015E00099FC5B463B7001232279290093404246D7
:1015F0009361AD23012220682B701BF061FC012850
:1016000050D0012322799340424653613A78120721
:10161000DED5424693616B46D91D9F230122206887
:101620000B701BF04DFC012843D00123227993401D
:10163000424653610022AB5E4A46126894464A46CF
:10164000634413600222AB5E4A46526894464A469F
:10165000634453600422AB5E4A46926894464A460D
:101660006344936001239C46E2445346C72BB2DD9A
:101670004B465146186805F021FC4B465146186010
:10168000586805F01BFC4B4651465860986805F0B9
:1016900015FC4B46986005B0F0BCBB46B246A94667
:1016A000A046F0BD01233A00002120681BF098FB02
:1016B000A7E706232A00002120681BF091FBB4E76E
:1016C000F0B557464E464546DE460023E0B585B0A8
:1016D0009A466B469F1D00239B46D02396261B06E9
:1016E000040089469846760002AD05E05346C72BB4
:1016F0004CDC013E002E49D001200BF00BFC5B4678
:101700003B70012322792900934042469361AD2327
:10171000012220682B701BF0D3FB012850D001233D
:1017200022799340424653613A781207DED5424609
:1017300093616B46D91DA523012220680B701BF015
:10174000BFFB012843D001232279934042465361D5
:101750000022AB5E4A46126894464A4663441360D0
:101760000222AB5E4A46526894464A46634453603E
:101770000422AB5E4A46926894464A4663449360AC
:1017800001239C46E2445346C72BB2DD4B465146EB
:10179000186805F093FB4B4651461860586805F0F1
:1017A0008DFB4B4651465860986805F087FB4B46C9
:1017B000986005B0F0BCBB46B246A946A046F0BD55
:1017C00001233A00002120681BF00AFBA7E706234B
:1017D0002A00002120681BF003FBB4E7F0B5DE46C9
:1017E000454657464E46E0B59FB01AAC2200012749
:1017F000584B029023CB23C21B680520136002F0D4
:1018000073F83A002379D0269A403606726252491C
:1018100072611A9809F008FC022250485049436846
:101820000A6001681340C5324A40CF21114080222E
:101830005201024311604B4A01211360E07902F02A
:1018400011F80121607902F00DF80121A07902F070
:1018500009F83A00237917AD9A407623B26129003E
:1018600002222B801A9898461BF02AFB3A00237913
:1018700029009A401223FF3372611A98B261022242
:101880002B801BF01DFB3A0023790A209A407261DD
:101890000BF040FB002306AAD373237901229F405B
:1018A000F523B76129001A982B701BF009FB01285A
:1018B00035D0012322792C499340D0221206029878
:1018C0005361FEF777FD254809F04AFCE0791F21B6
:1018D00001F0C8FF60791F2101F0C4FFA0791F212A
:1018E00001F0C0FF20791F2101F0BCFF0123190086
:1018F000E27918009140D022120691626179884005
:1019000090621800A1798840906221798B4093629F
:101910001FB0F0BCBB46B246A946A046F0BD06A922
:101920008C460F22012300211A9862441BF058FABA
:1019300007000128BDD1020023799A4006AB7261ED
:10194000DA7B472A14D0472308490298FEF732FD74
:10195000B9E7C046B8DE011040420F0000C00340A6
:1019600004F0034004E00340C8DC0110E0DC011097
:101970004722FA490298FEF71DFD3A002379290013
:101980009A406523B261206802222B801BF098FAEE
:101990003A00237929009A40662372612068B26177
:1019A00002222B801BF08CFA3A00237929009A40FE
:1019B000682372612068B26102222B801BF080FADA
:1019C0003A00237929009A40692372612068B26144
:1019D00002222B801BF074FA3A00237929009A40E6
:1019E000DF4B72612068B26102222B801BF068FA23
:1019F0003A00237929009A404D2372612068B26130
:101A000002222B801BF05CFA3A00237929009A40CD
:101A10004E2372612068B26102222B801BF050FAC3
:101A20003A00237929009A40434672612068B261E6
:101A300002222B801BF044FA3A00237929009A40B5
:101A40004C2372612068B26102222B801BF038FAAD
:101A50003A00237929009A40C24B72612068B26132
:101A600002222B801BF02CFA3A00237932209A4074
:101A700072610BF04FFA83233A00DB05A3602379F0
:101A800029009A40CA23DB00B261206802222B8021
:101A90001BF016FA3A00237929009A40130072616C
:101AA000B14A2068E260B361B04B02222B801BF088
:101AB00007FA3A00237900219A4090460CAB1800AF
:101AC00072610C22994606F0D5FD0C22002110A867
:101AD00006F0D0FD0C22002114A806F0CBFDA44B8B
:101AE0000222E3604346B361A24B29002B802068A9
:101AF0001BF0E6F93A00237929009A409E4B726167
:101B00002068B26102222B801BF0DAF93A002379B7
:101B100029009A40994B72612068B26102222B80A1
:101B20001BF0CEF93A00237920009A4010A9726187
:101B3000FFF7C6FD3A00237929009A40EE23DB0027
:101B4000B261206802222B801BF0BAF93A00237997
:101B5000C8209A4072610BF0DDF9200014A9FFF74C
:101B6000AFFD3A00237929009A407023B2612068C2
:101B700002222B801BF0A4F93A00237920689A40B6
:101B800072611099149B5B1AD9175B184B4005932F
:101B90002B60159B0393119B04930499039B5B1A81
:101BA000D9175B184B406B609846169B0393129BAA
:101BB00004930499039B5B1AD9175B184B4003935A
:101BC000AB60BB23B2615B0006AA93820BA9022221
:101BD0001BF076F93800237906AA9840DF2370615C
:101BE0000AA9B0611374206801221BF069F9012869
:101BF00000D157E20122237992469A401300D02265
:101C00001206536193617623934606AA13821A98AB
:101C100002220AA91BF054F9524623799A40130074
:101C20005A46536106AB1B7D002B00D085E1012293
:101C3000534B9246059A9A4200DC23E2504B98455A
:101C400000DC18E24E4B039A9A4200DC0CE2109B37
:101C5000D9175A1804934B4B4A409A4200DDF9E1D8
:101C6000119B484FDA179B469B185340BB4200DD3F
:101C7000E0E1129BDA1703939B185340BB4200DD4F
:101C8000A8E15346002B00D1ACE13F490298FEF792
:101C900091FB0C22002110A806F0ECFC0C22002184
:101CA00014A806F0E7FC80230122DB05A36023795A
:101CB000D02790469A40354B3F06BA612900022250
:101CC0002B801A981BF0FCF84246237929009A4091
:101CD0002F4B7A611A98BA6102222B801BF0F0F820
:101CE0004246237929009A402A4B7A611A98BA61B0
:101CF00002222B801BF0E4F84246237920009A4010
:101D000010A97A61FFF74EFC4246237929009A40D8
:101D1000214BBA611A9802222B801BF0D1F842465F
:101D2000237919209A407A610BF0F4F8200014A965
:101D3000FFF738FC4246237929009A407023BA61A4
:101D40001A9802222B801BF0BBF8424623791A987E
:101D50009A407A611099149B20E0C0460CDD011076
:101D6000760400004E0F00000000FA444F06000009
:101D700000007A434F660000511A00005214000020
:101D8000B71E00003D0A000098DD011050660000FB
:101D90005315000052410000707800005B1AD917FB
:101DA0005B184B4017930793159B0593119B069364
:101DB0000699059B5B1AD9175B184B40069312993D
:101DC0006B60169B05915B1AD9175E184E40DF4B6E
:101DD000AE60BA6106AA93820BA902221BF070F8CA
:101DE000424623791A989A40BB237A61BA6106AABF
:101DF00013740AA901221BF063F8012800D197E1AE
:101E000001273A0023791A989A401300D02212062B
:101E1000536193617623904606AA13820AA902228F
:101E20001BF04EF823799F4043465F6106AB1B7D54
:101E3000002B08D006AB5B7D002B04D006AB9B7D4E
:101E4000002B00D035E1C24A079B9446C14A634447
:101E50000127934204D9C0490298FEF7ABFA002744
:101E6000BB4A069B9446BB4A6344934204D9BA4991
:101E70000298FEF79FFA0027B54BB64AF318934233
:101E800004D9B5490298FEF795FA0027109A119BDC
:101E900011980C920D93C21780185040109A129B03
:101EA000D11752184A40D9170E935B184B400021A6
:101EB000904200DD04314D466D58E9176D184D40D4
:101EC0000821AB4203DC0021904200DD043149448B
:101ED0000A688020D3430002DB1703409F488446F2
:101EE0006344D31A0B60002F00D182E0029D9C490D
:101EF0002800FEF75FFA039B2800049A9949009393
:101F00005B46FEF757FA4A464B4692685B682800E4
:101F1000009295490C9AFEF74DFA5346002B00D1DA
:101F2000B7E0924D2A0092490298FEF743FA2A0040
:101F300090490298FEF73EFAC5E406AB5B7D002BA4
:101F400000D174E606AB9B7D002B00D16FE60BAB96
:101F50009B4601232F009A465B46187806F088F8C6
:101F6000FE21890506F01DF8011C834806F0FCF9E6
:101F7000824906F030F8FC21890506F015F806F0D4
:101F8000CBF8061E00D10BE1386806F06BF88046EE
:101F9000300006F067F8011C404606F008F8FF2103
:101FA0008905061C06F056F8002806D1FC21301CD5
:101FB000890506F047F8002805D071490298FEF718
:101FC000F9F900239A4601239C460437E344BC42B6
:101FD000C2D13CE66B4B984641460298FEF7EAF9BF
:101FE000129B039368490298FEF7E4F900239A468E
:101FF0004FE6029D65492800FEF7DCF9039B2800A7
:10200000049A584900935B46FEF7D4F94A464B467A
:1020100092685B682800009253490C9AFEF7CAF94F
:102020005346002B3CD0514A51490298FEF7C2F961
:10203000574A7DE7534B029819009846FEF7BAF9C4
:10204000119B9B46129BDA1703939B185340BB428C
:10205000C8DDC1E74B4B02981900FEF7ABF9109BA6
:10206000049300239A46FBE54A490298FEF7A2F939
:1020700000239A46EBE547490298FEF79BF90023B7
:102080009A46DFE543490298FEF794F900239A4601
:10209000D4E53F4A36490298FEF78CF9334A47E7C0
:1020A0003B4D3FE70323002120680BAA1AF098FE5E
:1020B000A0E501270BABB8461F00387805F0D8FF24
:1020C000FE21890505F06DFF011C2B4806F04CF937
:1020D0002A4905F080FFFC21890505F065FF06F01F
:1020E0001BF8061E2BD0286805F0BCFF05903000B9
:1020F00005F0B8FF011C059805F059FFFF2189057F
:10210000061C05F0A7FF002806D1FC21301C89051C
:1021100005F098FF002805D01F490298FEF74AF9FC
:102120000023984604350137AC42C6D14746ADE698
:10213000032300211A980BAA1AF052FE60E61749F1
:102140000298FEF737F900239846EBE77602000085
:10215000CDFCFFFF99490000C8DD011000C0FFFF62
:102160002CDE011044DE011064DE0110BCDC011025
:10217000ACDE0110A0DE0110AE47813F00C0234558
:102180005CDD01107CDD0110B0DD011088DE011086
:10219000C0DC011020DD011008DE0110E8DD0110B7
:1021A00003490298FEF706F900239A460BE7C0465A
:1021B00040DD0110F0B557464546DE464E46E0B5D7
:1021C0002E4B05001F689A4683B0002F2BD02C4E53
:1021D000012F11D033000C3B98467A00D719BF006D
:1021E000B84434000127E0681AF0A0FA874200D210
:1021F00007000C344445F6D17B1C0193214B00278A
:102200009B463368280019009846FEF7BFF87368AC
:102210009946002B02D01B78002B17D153461B6820
:1022200001379F4209D32800FEF7BAF803B0F0BC8B
:10223000BB46B246A946A046F0BD2800FEF7B0F85E
:1022400053461B680C36BB42DBD8ECE7002404E0A5
:1022500059462800FEF79AF8013440461AF066FA0B
:10226000019B181AA042F3D828000749FEF78EF800
:1022700049462800FEF78AF8D0E7C046E82B002040
:1022800064DF01105C130210C8DE0110F8B55B4C6E
:10229000DE46574645464E462000594BE0B50021E4
:1022A00024224030236006F0E5F90222554BA26457
:1022B000E36301230832E26402322265023262657E
:1022C000063AA2655432A35463644F4B4F4F636682
:1022D00001F0C4FB050001F0C1FB29000200200051
:1022E00008F05CFFA7239B009C46494BA5259A4616
:1022F00000239846AD006259EFF3108072B6136860
:10230000002BFCD0BFF35F8F63465146E35AE25B7C
:10231000615A9A1A02D54E1CB1464A44914200D1E4
:1023200059E0A6223B4D9200A2582F689E00B7505C
:102330000022160001339BB29942564171420B4074
:10234000A726A521B6008900A3536358BFF35F8F6A
:102350001A6080F3108840BF2C4B98462C4B9B464C
:10236000002399466258EFF3108C72B61368002B65
:10237000FCD0BFF35F8F42465846A35BA25A205A57
:102380009A1A02D5471CBA46524490422CD0A02239
:102390009200AD581832A25899008D5000221100B9
:1023A00001339BB29842514149420B40A721890019
:1023B0006352A5239B00E358BFF35F8F1A608CF331
:1023C000108840BF144808F009FEF0BCBB46B24676
:1023D000A946A046F8BD6359BFF35F8F42461A6015
:1023E00080F3108820BF86E76358BFF35F8F4A46AB
:1023F0001A608CF3108820BFB4E7C04698460020CE
:102400009019002000002050DD0000209E020000F6
:10241000A202000058490020C1000020014B986A28
:102420007047C046901900200D207047F0B5C64691
:102430000D4D06000C0000B5110028001AF038FD03
:10244000002802D180BCB846F0BD084B80279846D2
:10245000FF003A002100180006F012F94346280058
:10246000DE551AF0C5FCEDE710350020645200205F
:10247000024B1880024B19807047C046EC2B00209D
:10248000CC56002010B5182001F02EFAD02480235D
:1024900024065B0463621920636101F025FA80233E
:1024A0009B0463621520A36101F01EFA80239B0345
:1024B0006362A36110BDC046064B1B78002B06D09B
:1024C000D02380221B069204002801D05A61704755
:1024D0009A61FCE7EE2B0020064B1B78002B06D000
:1024E000D02380221B065204002801D05A61704775
:1024F0009A61FCE7EE2B0020064B1B78002B06D0E0
:10250000D02380221B069203002801D05A61704715
:102510009A61FCE7EE2B00200022014B1A707047F5
:10252000EE2B002010B5184C2378DAB2002B12D015
:10253000012AF9D10020FFF7CFFF0120FFF7DCFFD0
:102540000020FFF7B9FFFA2040000AF0E3FC2378EF
:10255000DAB2002BECD10020FFF7BEFF0020FFF71E
:10256000CBFF0120FFF7A8FFFA200AF0D3FC0020E0
:10257000FFF7B2FF0020FFF7BFFF0020FFF79CFF2F
:10258000FA200AF0C7FCCFE7D8560020002300B598
:1025900085B0039303AB0193012380220093034989
:1025A000002303480AF0B6F805B000BDACDF011007
:1025B000252500100022014B1A707047D8560020C4
:1025C0000122014B1A707047D8560020F8B55746C3
:1025D0004E464546DE462D4BE0B59A462C4B994675
:1025E0002C4B984604E04246137032200AF092FCCD
:1025F00053464A461868072143000130D65A04F072
:1026000085FC4B4649005C5A43461D78132D26D85D
:10261000F30A9B461F22770916405A463F23E00AD9
:10262000801A142168431F4004F048FC5844C20239
:102630001F2093462040801B1421684304F03EFC79
:102640003F235A46861960091840C01B142168436D
:10265000164304F033FCC7197C013443A4B20021B3
:102660002000FFF705FF43461B780133DBB2132B35
:10267000B9D900234246137053461B680721581CE2
:1026800004F044FC53461960AFE7C04620460020E2
:1026900004E00110D556002030B587B0FFF7F2FEF8
:1026A0000A2001F0D9FFFFF7BFFEC0B202F09AFF87
:1026B0000A2001F0D1FFFFF7B1FE05AB04AA03A980
:1026C000040001F011F8002803D121001B4803F099
:1026D0009DF8059A0499039800F0CAFF06F094FA51
:1026E000FFF7D4FD00F0AEFF00F092FF0020FFF7EF
:1026F000F3FE0025012480222B0052001049009493
:10270000104801950AF006F880202100C00005F06D
:1027100059FF402380220C490400FDF7F3FDFA2203
:10272000210092002800FFF781FE200005F08AFFBB
:10273000FFF72CFF0AF0ACFA20BFFDE7D0DF011055
:10274000B8DF0110CD250010B0CF01100023F0B587
:10275000104C83B00193A369DB0618D46B46102597
:102760000D4FDE1CA3691D42FCD12368012233708A
:10277000310001AB386809F0F9FBA3691D42F1D0C3
:10278000019B002B03D08022044B52051A6003B03A
:10279000F0BDC04600400340A056002004ED00E01C
:1027A000F0B55746DE464E464546E0B599B0476817
:1027B00004910392002A00D142E103227B421A4095
:1027C00000237D780193A04B7C6C994601239A46A7
:1027D0009E4B05929B461FE02D1B039B019A9E1A60
:1027E000AE4200D92E00019B04989C46B91C0919E1
:1027F0003200604405F044FF7B6C7D78F4187C6403
:10280000AC4200D1BCE0019B039A9C46B4446346B1
:102810000193624500D19FE0A542DDD10023B84677
:102820000293002701263B0000244746984602E019
:102830002418B4424ED0434648461D190068C823A8
:10284000321B791909F026FC0028F1D1B846002C7A
:1028500024D0002D43D043461B786A1E052B7BD81D
:1028600059469B00CB589F460126B24206D2B61A63
:10287000731C71D0002E01D02F00D4E7002407AEC6
:1028800002E02418012C2DD0534648461A1B00683C
:10289000C823311909F0FEFB0028F2D1029B002B5E
:1028A0005AD120216A4A93691942FCD1534620210A
:1028B0001360674A93691942FCD1534613600123A0
:1028C0000293AEE70426D0E7002A08D043465E789C
:1028D0000136CAE743461D19B846002DBBD1012673
:1028E0002F00A0E7002D69D1002300224146895C1A
:1028F0004B40511CA9422CD24046415C4B40911C9C
:10290000DBB28D4225D9415C4B40D11C8D4220D990
:10291000415C4B40111DA9421BD2415C4B40511DF3
:102920008D4216D9415C4B40911D8D4211D9415CBD
:102930004B40D11DA9420CD2415C4B4011000831E3
:102940008D4206D9415C09324B40954201D9825CE7
:10295000534032789A420CD0039B019A981A434212
:102960005841C0B219B0F0BCBB46B246A946A04619
:10297000F0BD43461B78012B5AD10023029350E748
:1029800007AB422200211800984605F073FE202173
:102990002F4A93691942FCD10223202113602C4A4B
:1029A00093691942FCD1434620215B781360284A81
:1029B00093691942FCD10223136024E70A2D93D9AD
:1029C000059900292DD043461B78012926D042467F
:1029D00052785340032928D142469278023453401A
:1029E0000A00A91A8C4600208F084244BF00BF1875
:1029F00002CA4840BA42FBD10204120E4240534080
:102A00000202120E5340020E5340614603229143CC
:102A1000DBB262188C4500D068E79AE701240A000F
:102A2000DFE7002400230A00DBE702240A00D8E7DE
:102A30004746052B90D1002300247D787B64CCE6AB
:102A40000023019388E7C046A056002014E001103F
:102A500000400340F0B5DE4657464E464546E0B5D9
:102A600097B003910192002A00D161E10023009305
:102A7000B54B9846B54B9B46019B009A9B1A9A46CC
:102A80000293402B01D940239A464222002105A8F7
:102A900005F0F0FD052304AA1371130052465A7184
:102AA000009B03999C4604AB981D614405F0E8FD2A
:102AB00053469A1C0133062B00D83CE1059B910834
:102AC000012939D006984340022935D00798434060
:102AD000032931D00898434004292DD00998434058
:102AE000052929D00A984340062925D00B98434050
:102AF000072921D00C98434008291DD00D98434048
:102B0000092919D00E9843400A2915D00F9843403F
:102B10000B2911D0109843400C290DD01198434037
:102B20000D2909D0129843400E2905D0139843402F
:102B3000102901D114994B4018041902000E584075
:102B4000090E48401B0E584003211300C0B28B43AE
:102B5000114226D005A9C95C4840591C8A4220D997
:102B600005AC615C023348409A421AD905A9C95C98
:102B70004840591C8A4214D905AC615C4840991CF4
:102B8000C0B28A420DD905AC615C4840D91C8A426A
:102B900007D905AC615C043348409A4201D9E35C33
:102BA0005840202104AB9D1D694A05AC55449369EA
:102BB0001942FCD1237801341360AC42F7D12022B2
:102BC000634914008B691C401A42FAD1A1460027C0
:102BD00001260860002402E02418B44245D0404693
:102BE00005AB3D1959190068C823321B09F052FA88
:102BF0000028F1D1002C25D0002D38D004AB1B7952
:102C00006A1E052B1ED859469B00CB589F460126AD
:102C1000B24206D2B61A731C14D0002E01D02F0077
:102C2000D8E704AB00240127DE1C02E02418012CA5
:102C300020D04046C82300683A1B311909F02AFA0F
:102C40000028F3D1029843425841C0B217B0F0BCFB
:102C5000BB46B246A946A046F0BD0426D8E7002AE6
:102C600005D004AB5E790136D2E73D19C4E70126F1
:102C70002F00AFE7002D64D0072D62D905AB9C462D
:102C80000024A8088000604404CB54408342FBD158
:102C900022042302120E62401B0E5A402900032315
:102CA000240E624099438946D2B22B422ED0494627
:102CB00005AB5B5C5A404B460133AB4226D205A9BB
:102CC000CB5C5A404B460233D2B2AB421ED205A96E
:102CD000CB5C5A404B460333AB4217D205A9CB5CC1
:102CE0005A404B460433AB4210D205A9CB5C5A4044
:102CF0004B460533AB4209D205A9CB5C5A404B4643
:102D00000633AB4202D205A9CB5C5A4033789342DA
:102D100098D104AB1B79022B94D104AB5B79002BC7
:102D200090D1009B019A534400939A4200D0A3E6AD
:102D30000023029386E704AB18795B79584002239D
:102D400014E70022B3E7C046A05600202CE0011093
:102D500000400340F0B5DE46454657464E46E0B5D6
:102D6000FA209BB00AF0D6F800230022009301213C
:102D7000432008F097FF96219F4DA04C89012060C9
:102D8000280002F055F80221002000F06BFD02211E
:102D9000012000F067FD00220121012000F07AFDF2
:102DA00000220121002000F075FD0121280002F021
:102DB0009DF9002301220821280002F059F9C022C0
:102DC0002B6B120213408E4A142013608D4900F0C1
:102DD000A5FE0121142000F05DFE5023AB636A6B59
:102DE000183B1340884A13600023039308AB9B46AB
:102DF000814B9946FFF7DEFB96217F48890102F05F
:102E0000DBF820224B4611009B6919401A42F9D188
:102E1000F0234A46136000238A469846012700257E
:102E200003E02D18BD4200D159E24346EE185B463F
:102E3000206899197A1BC82309F02CF90028F0D1D1
:102E4000002DD7D0002E00D14DE25B461B78721EBC
:102E5000052BCFD86D499B00CB589F460127BA421E
:102E600006D2BF1A7B1CC5D0002F01D0B046D6E7D2
:102E70000027012304A9DA1B2068C733C91909F008
:102E800009F90028B6D03F18012FF2D1002E00D149
:102E90007CE1072E00D879E15B460025B008800070
:102EA000584404CB55409842FBD12A042B02120E01
:102EB0006A401B0E5A40310003232D0E6A4099438D
:102EC0008A46D2B2334229D05B4651465B5C5A40B7
:102ED000534601339E4221D95946CB5C5A40534652
:102EE0000233D2B29E4219D9CB5C5A4053460333C7
:102EF0009E4213D9CB5C5A40534604339E420DD9AF
:102F0000CB5C5A4053460533B34207D2CB5C5A40A0
:102F100053460633B34201D2CB5C5A4002AB1B7A14
:102F2000934200D066E75B461B78012B00D061E737
:102F30003E22002109A805F09DFB03235A46137089
:102F4000002302AA5376202202A98A76043ACA767E
:102F50000B7758462021284A93691942FCD10378FF
:102F600002ADAC4613601D23013063448342F3D1AC
:102F70002022214910008B6918401A42FAD13F23C0
:102F80000B6000239A460133B84681461F00002596
:102F900003E02D18BD4200D1A8E15346EE185B4670
:102FA000206899197A1BC82309F074F80028F0D119
:102FB000002D00D11CE7002E00D119E35B461B78E1
:102FC000721E052B00D913E711499B00CB589F4671
:102FD000042744E7002A00D185E15B465F7801378A
:102FE0003DE70127BA4215D2BF1A7B1C00D1FFE68C
:102FF000002F0FD0B246CAE700400340A056002081
:10300000305003404D2700103450034044E001107D
:103010005CE0011000231D00012304A95A1B206855
:10302000C733491909F036F8002800D1E0E62D1819
:10303000012DF1D1AA46002E00D1D4E2072E00D8EE
:10304000D1E259460022B3089B005B4401C94240CB
:103050008B42FBD1130411021B0E5340090E4B404F
:10306000120E5A403100032399438946D2B23342AB
:1030700029D05B4649465B5C5A404B460133B3421C
:1030800021D25946CB5C5A404B460233D2B29E42C3
:1030900019D9CB5C5A404B460333B34213D2CB5CB5
:1030A0005A404B4604339E420DD9CB5C5A404B46A6
:1030B0000533B34207D2CB5C5A404B460633B3428A
:1030C00001D2CB5C5A4002AB1B7A934200D08FE610
:1030D0005B461B78022B00D08AE65B465B78029346
:1030E000002B00D084E6E121A248490301F064FFEF
:1030F000192009F00FFF42220021584605F0BAFAC4
:1031000020219C4A93691942FCD104232021136099
:10311000984A93691942FCD15B465B7895491360E4
:10312000202210008B6918401A42FAD104230B6048
:103130000023804699460127002503E02D18BD4253
:1031400000D1D6E04B465E195B46206899197A1B80
:10315000C82308F09FFF0028F0D1002D00D147E6DA
:10316000002E00D141E25B461B78721E052B00D970
:103170003EE681499B00CB589F46042732E7002A50
:1031800000D1B9E05B465F7801372BE700229BE670
:103190000127BA4207D2BF1A7B1C00D128E6002FB4
:1031A00001D0B146C8E70025012304A95A1B2068B5
:1031B000C733491908F06EFF002800D118E62D1812
:1031C000012DF1D1002E00D0EAE142465B469B5C26
:1031D000029A5A40434601330292B34227D25946DB
:1031E000CB5C5A404346D2B202330292B3421ED263
:1031F000CB5C5A40434603330292B34217D2CB5CB6
:103200005A40434604330292B34210D2CB5C5A4038
:10321000434605330292B34209D2CB5C5A4043463F
:10322000063302929E4202D9CB5C5A40029202AB14
:103230001B7A029A934200D0DAE55B461B78022B98
:1032400000D0D5E55B465B78002B00D0D0E5FFF7DA
:10325000B7F9039B002B64D1484B1B680133002B4B
:1032600000D10133454A00251360454A802613608A
:103270001A2311001382958024230122CA540A764E
:10328000202300223F48CA5405F07EF93C4BF6004B
:103290003D49D86132000680023005F0F1F95B4605
:1032A0003A4A83CA83C303CA03C33949022358462F
:1032B000334A0FF057F83249070035480DF008FF40
:1032C000002F67D12E4932480DF002FF90E5042708
:1032D0005FE7002A13D05B465F78013759E7454422
:1032E0002E1E00D0B1E50127B04698E555442E00CA
:1032F00061E64D442E0033E70127B24647E6012739
:10330000B14619E71E4B1B79002BDBD11C4B1B8AE6
:10331000172B00D162E1042BD4D119491C480DF0C0
:10332000D7FE164B1B680133002B00D10133134A23
:1033300000261360124A1360142313825B469680A2
:10334000124A23CA23C303CA03C31149022358469E
:103350000B4A0FF007F80A4905000D480DF0B8FEBA
:10336000002D00D0C4E0064909480DF0B1FE01234C
:1033700003933DE50040034074E00110F04100205C
:10338000A036002002040000B0D3011098E0011024
:103390003CE7011048220021584605F06BF9964B96
:1033A000012704935B467F420593944A0223944984
:1033B00004A8069707950DF04FFD002800D181E77E
:1033C0008E4B1B79002B00D07CE78C4B1B8A042B87
:1033D00000D077E70121300005F0F4F80500402324
:1033E00080228849FCF78EFF2900C8220020FFF7C1
:1033F0001DF8280005F026F9804981480DF068FE87
:1034000048220021584605F035F97B4B7B4A04934E
:103410005B46059300237A49079304A80233069775
:103420000DF01AFD002800D14CE7744B1B68029385
:10343000002B00D046E7714B1B79002B00D041E7F1
:103440006E4B1B8A172B00D03CE76C4B6C485D7EA3
:1034500019000DF03DFE012DD2D1684968480DF0EC
:1034600037FE694B1B680133002B00D10123664AEC
:103470001360624A13601B231382002393805B4610
:10348000624A23CA23C303CA03C35D4902235846C1
:103490005A4A0EF067FF5949050059480DF018FEC9
:1034A000002D00D10EE701256D424822002158462B
:1034B00005F0E0F8504B514A04935B460593002316
:1034C0004F49079304A8023306950DF0C5FC002868
:1034D00000D1F7E6494B1B680293002B00D111E79E
:1034E000464B1B79002B00D0ECE6444B1B8A12E7BD
:1034F00048220021584605F0BDF83F4B01250493B2
:103500005B466D4205933D4A02233D4904A806955A
:1035100007960DF0A1FC002800D124E7374B1B795A
:10352000002B00D01FE7354B1B8A042B00D01AE775
:10353000324933480DF0CCFD16E0304B1B79002B9F
:1035400000D010E72D4B1B8A162B00D00BE72B4B1E
:10355000C8229B690293991C284B187FFEF766FFCF
:10356000264927480DF0B4FD48220021584605F0B1
:1035700081F8214B214A04935B460593002320499F
:10358000079304A8023306950DF066FC002800D1CD
:10359000E9E61A4B1B680293002B00D0E3E6CCE768
:1035A000072E00D811E659460022B3089B005B4461
:1035B00001C942409942FBD1130411021B0E534032
:1035C000090E120E4B405340DBB23200029303232C
:1035D0009A439046334200D0F7E528E60749084869
:1035E0000DF076FD61E7002243E55746B146A3E5BD
:1035F0004746B246CBE4C046A1270010A0360020C3
:103600003CE70110B0D30110F041002098E0011018
:10361000002300B585B0039303AB019380220123FF
:103620000449009352010023034809F073F805B0E0
:1036300000BDC0468CE00110552D001010B5FCF700
:10364000C5FEFCE7002300B585B0039303AB0193EF
:103650008022012304490093D2000023034809F08B
:1036600059F805B000BDC046ACE001103D36001071
:10367000F0B583B005000E00140000F053F90028E7
:1036800001D003B0F0BD154F01223B00012100978E
:10369000053001F05DFD33002A000094012110483F
:1036A00001F050FF21002800714303F02FFC0400BB
:1036B0000C4B002200930221042001F049FD23005D
:1036C000002201210094052001F042FD3B0002226E
:1036D00000210097062001F03BFDD2E7006CDC02E0
:1036E00000800240001BB700F0B54E465746DE464C
:1036F0004546E0B585B00393554B06009A46A02396
:103700005B0099460191029201235B429C46E14491
:103710004B460F2B00D198E04E4F4F4B0724574498
:103720009A4569D821003800614303F0EFFB8642D7
:1037300048D0631E9846012C5ED01D0065433800BA
:10374000290003F0E3FB86425AD0A31E9B46022CBD
:103750005CD02D1B2900380003F0D8FB864257D0DF
:10376000E31E9B46032C6ED02D1B2900380003F06E
:10377000CDFB864250D0231F9B46042C52D02D1BDC
:103780002900380003F0C2FB86424DD0631F9B46E0
:10379000052C4FD02D1B2900380003F0B7FB8642C3
:1037A0004AD04346052B4CD03800E91F03F0AEFB4E
:1037B00086421CD0062421003800614303F0A6FB9A
:1037C0008642B6D10029B4D1A0464A46234B0120F7
:1037D0005343019A13604246029B1C60039B1A608C
:1037E00005B0F0BCBB46B246A946A046F0BD0029D4
:1037F000E0D101239846E8E7194B9C46E24483E771
:103800000029E2D0A31E9B46022CA2D1012489E705
:103810000029A5D1D846D8E70029FBD0231F9B4615
:10382000042CACD103247DE70029F3D0631F9B4611
:10383000052CAFD1042475E70029EBD04346052BB6
:10384000B2D105246EE702246CE70020C8E7C04629
:1038500070F72E00B0710B0050F80C00001BB70081
:1038600020D1FFFF094A830094464022634410B5EB
:103870001C68C0006240C0241440802252011343DF
:103880001C60034B9C466044416010BD04C0014075
:10389000004001400A4B80009C46042360440029FC
:1038A00001D00C230821002A00D10B0002685340EC
:1038B0000C221A4080235B01184302607047C04607
:1038C00004C00140074BC0009C46604403680902E5
:1038D0005940C0239B00194080235B0118430160BD
:1038E0007047C046044001400123D02283401206A5
:1038F00093629361094A83009446402263441968A5
:10390000C0004A40C0211140802252011343196077
:10391000034B9C46052360444360704704C001404C
:1039200000400140024B18688007C00F7047C04636
:1039300000C00640EFF3108072B6034A1368002BF4
:10394000FCD0BFF35F8F70472C0100D0BFF35F8FB7
:103950000022024B1A6080F3108870472C0100D0BF
:1039600070B5EFF3108C72B60D4D2B68002BFCD0A8
:10397000BFF35F8F0724CB08C618C05C01230C403F
:10398000A3401C000440034207D103433370BFF33C
:103990005F8F2C608CF3108870BD100001F036FF33
:1039A0002C0100D0F8B54746CE46884680B5EFF3E7
:1039B000108C72B6214D2C68002CFCD0BFF35F8FA9
:1039C0009A422CD8D4080727055D06190124174010
:1039D000BC402C421FD007210127894609E0D408AA
:1039E000055D06194C4639001440A1400C002942DF
:1039F00011D001329342F2D201204042BFF35F8FD7
:103A000000220E4B1A608CF3108800280FDBC0BC1C
:103A1000B946B046F8BD2C4310003470EEE7BFF352
:103A20005F8F00232B608CF31088012040424346B7
:103A3000002BECD0089801F0E9FEC0462C0100D024
:103A40000021044B044ABFF35F8F02C39342FAD1B3
:103A50007047C046000100D0800100D0044A1078B1
:103A6000431CDBB2172B00D9102313707047C046DC
:103A7000EF2B002000B5054B83B001000093182206
:103A80001F230348FFF78EFF03B000BDB8E001100D
:103A9000EC41002001238340002904D0034A136035
:103AA000034A13607047034A1360FBE780E200E0BB
:103AB00000E100E080E100E001228240034B1B684E
:103AC00013405A1E9341D8B27047C04600E100E04F
:103AD00001238340014A13607047C04600E200E0C2
:103AE000084B10309B688000C358002B07D0064A53
:103AF00000209B1A2F229A424041C0B270470020FA
:103B0000FCE7C04600ED00E0F02B0020024B103037
:103B10009B688000C058704700ED00E070B50D0054
:103B2000EFF3108672B60F4A1368002BFCD0BFF378
:103B30005F8F0D4B10309B6884001B590B4A9342DA
:103B400003D09D4201D001F079FE074B9B681D51C7
:103B5000BFF35F8FBFF35F8F0022024B1A6086F3C3
:103B6000108870BD240100D000ED00E0CD010010F0
:103B7000F0B557464E46DE464546E0B585B00600F0
:103B800002911700EFF3108B72B6674A1368002B8F
:103B9000FCD0BFF35F8F0025644B5D579A46002D24
:103BA00000DAA4E06B00624C03935B199B0098461B
:103BB000A146C1444B4652469B79103613705D4B6B
:103BC000B2009B68019299580B1B2F2B34D95A4B8A
:103BD000994200D0A4E0039B584A9C46584B654448
:103BE000AD006353434602336519E418554B012178
:103BF000043B1B1B1B055B0D13436B80524BEF718A
:103C0000AB80FF23AB71029BAB604B460B431900AB
:103C1000484B019A9B689950BFF35F8FBFF35F8F4A
:103C20000022414B1A608BF3108805B0F0BCBB46F4
:103C3000B246A946A046F0BD01200A008243D379CE
:103C4000BB422FD845464E46130040491B1B5B41E3
:103C50005943090D3A4B63533A4B02356519043BFE
:103C60005B1B1B05354D5B0D2B4373800426B4464F
:103C7000E0444444131F1B1B4C46A17102991B05D1
:103C8000A16049465B0D2B43A380314BE771014393
:103C90001360BDE75800C01880002018C679BE42E6
:103CA0002BD902000623D356002BF3DA101D8246CF
:103CB0002848804604267642B446E14450464E46A3
:103CC000361A3005400D824656461C48957106430B
:103CD0009680039A944665441D4AAD00641922609B
:103CE0004246A371029BA280E771A36090E701F0B6
:103CF000A5FD002553465D5754E7101D8246908868
:103D00004005001584464046D444664604302018D9
:103D1000301AE0260005400D360230438046C9E7E0
:103D200001F08CFD57E7C046240100D0D656002094
:103D3000F02B002000ED00E0CD01001000E0FFFFBF
:103D400000A1FFFF202C002001BDFFFFAAAA000058
:103D50000148804701BD0000F0B5DE4657464E469B
:103D60004546E0B50C0083B0EFF3108972B6584AAF
:103D70001368002BFCD0BFF35F8F564B9A6803008B
:103D800010339F00D559544A9046954232D0A542EF
:103D900043D0524EAA1B2F2A2CD801228240924691
:103DA00051464F4A12681140019151464D4A1160E7
:103DB000BFF35F8FEFF305829346002A33D10123CF
:103DC0002A009A4393689C4208D177E04B005B1825
:103DD0009B00F3189968A1422AD01A000621515677
:103DE0000029F3DA019B002B19D052463E4B1A6092
:103DF0003B4B1A60374B9B68DD51BFF35F8FBFF3BE
:103E00005F8F0022324B1A6089F3108803B0F0BC38
:103E1000BB46B246A946A046F0BD1500EAE75246A9
:103E2000304B1A60E6E79342C9D001F007FDC6E7C0
:103E300006215956002921DB4A0050188000341809
:103E40008046A0689860E079D87106202056987165
:103E5000002824DBA488F01A6405241544440019C2
:103E6000E0240005400D24022043988052181F4B87
:103E70009200B6181A781970B271B3E75946002942
:103E80000FD1FF3191711A49918018490A789A71BE
:103E9000184A9B1B5B415A43120D0A70A2E7164851
:103EA000E3E7164A1649D21A083A5002400D014378
:103EB0009980144952080A43DA8093E70621515643
:103EC00013000029B8DA5A46002AEAD14546DCE751
:103ED000240100D000ED00E0CD010010F02B002007
:103EE00000E100E080E100E080E200E0D656002042
:103EF00001BDFFFFAAAA000001BD00002A2C00207E
:103F000000F0FFFF00F8FFFF70B5EFF3058101241B
:103F10000443EFF3108C72B6214A1368002BFCD0D7
:103F2000BFF35F8F1F4B05001F4AED1A6D416A43B7
:103F3000120D1E4D8900AE6852B27658A6421CD0B2
:103F40000621595691421CD012215956914222D035
:103F50001E215956914220D02A21595603249142BC
:103F600010D0134B19781A708171BFF35F8F002244
:103F70000B4B1A608CF3108870BDAB680D4C5C5015
:103F8000EFE700246100091989005B18FF2199718E
:103F900009499980E5E70124F4E70224F2E7C046E5
:103FA000240100D0F02B0020AAAA000000ED00E0C0
:103FB000D6560020CD01001001BDFFFF054B064A7B
:103FC0001360064A136053609360D36013615361BA
:103FD000936170478080808000E400E004E400E0AA
:103FE00000B5074B83B0010000930022052305486C
:103FF000FFF7D8FC002801DB1F23181A03B000BD0F
:10400000D4E00110DD560020024B9C46614489003B
:10401000016070474000003410B50400FFF71EFD3A
:1040200001002000FFF7F0FFFF232371BFF35F8F34
:1040300010BDC04610B50400FFF710FD01002000C0
:10404000FFF7E2FFFF23A380BFF35F8F10BDC046E1
:1040500010B504000120FFF70DFD044B9C466044A1
:1040600080002060BFF35F8F10BDC0464000003469
:10407000034B9C46614489000160BFF35F8F70472A
:104080004000003483680B4810B5844661446244A4
:10409000090112019A18591854684B6801209C4272
:1040A00001D802D00020C0B210BD12680B689A423D
:1040B000F9D8F7E7FFFFFF0F0A4B1968EFF31080FD
:1040C00072B60A68002AFCD0BFF35F8F1B68BFF38B
:1040D0005F8F00221A6080F3108840BF002000210B
:1040E0007047C04694560020F8B557464E464546A0
:1040F000DE46E0B599460CAB1C780DAB1B7806008C
:1041000090469A460768002C11D1BC7B002C42D007
:1041100065003B682D19033D59194B78BB73002B83
:1041200000D1FB7300238B704B700B7004E06500B3
:104130003B682D19033D5919B2682A4B94464246F3
:10414000E3181B0163441A604A465A600A9A9A604F
:104150000B9ADA6000238B704B700B707B7B9B4655
:10416000002B2BD022005946B8687B6898473A68E4
:10417000002816D05B4658465B005B445519033B4C
:10418000A870D118D35C002B00D06B705B460C700C
:104190007B73A34513D0F0BCBB46B246A946A046EC
:1041A000F8BD5B465B005B44033BD3189C70511920
:1041B000525D002A00D05A705B460B707C734246F9
:1041C0004B46307D00F0C0FB051E06D05346002B49
:1041D00003D12100306800F0DBFD0E9B002BDAD00C
:1041E0001D70D8E7FFFFFF0FF0B5DE4657464E467D
:1041F00045460023E0B58BB00893674B8200D45846
:1042000000239B46099000F015FB626806000F0032
:10421000EFF3108572B61368002BFCD0BFF35F8FED
:1042200023689C465B7B9946002B00D169E0A2681D
:104230005A4B90464B441B01984443461A685B68AE
:1042400010001900801BB941002900DC63E00998C7
:1042500000F07AFB00230022984600230692079381
:1042600000239A466368BFF35F8F5A461A6085F34E
:1042700010885346002B08D10028C4D10BB0F0BCE5
:10428000BB46B246A946A046F0BD089B414618026F
:104290004B461843D047626806000F00EFF31085C5
:1042A00072B61368002BFCD0BFF35F8F002F50DB7A
:1042B00033003B4302D02369002B61D12368D97BB3
:1042C000002907D04A00521819688C4649466244B2
:1042D000033A51709A7B002A01D14A469A734A46A2
:1042E000DA734B46E168013BCA5C0132CA545B4653
:1042F00023616368BFF35F8F5A461A6085F31088A5
:1043000081E70023002298460023069207930023AA
:1043100000209A46A6E7002902D1002800D096E79F
:104320000021604600F0B2FC43461A685B680692C2
:10433000079343469B689A464346DB689846E36882
:104340004B44013B1B7808931B020343236100206D
:1043500088E72369002BB1D0069A079B921BBB41CB
:10436000002B15DB59460491012103914946029126
:1043700041460191514620000091FFF7B5FEB6E796
:1043800000F058FA32003B0012184B41002BE9DADA
:104390000122034B5242E5E774560020FFFFFF0F56
:1043A000FFFFFF7F10B5144C6368002B04D00A2177
:1043B0001248FFF729FE10BD2300114A1021206882
:1043C00000F07EFB032000F029FA032000F026FB1A
:1043D00003200C4900F072FAFFF740FB0A4B9C46A1
:1043E00003232375D0231B061B6860446375074BAA
:1043F00080006060DC60DAE7382C002094560020F2
:1044000085400010E941001040000034745600203F
:1044100000487047382C0020F0B54E464546DE4631
:104420005746E0B585B0019310AB1B7806000393A7
:1044300000239946984600927268EFF3108B72B68B
:104440001368002BFCD0BFF35F8F3568AC7B002C6A
:104450003DD067002B683F19033FDB195A78AA73D8
:10446000002A00D1EA73B168474A8C460098019946
:10447000A21812016244106051600E9991600F9968
:10448000D16042469A705A701A706B7B9A46002B24
:1044900067D022001900A8686B6898472A6800282E
:1044A00052D0534650465B005344D719033BB87073
:1044B000D118D35C002B00D07B7053460C706B730B
:1044C00054454FD0F3681B19013B187800E00020D9
:1044D0007368BFF35F8F42461A608BF31088002C1D
:1044E0004FD04B46002B08D10002204305B0F0BC52
:1044F000BB46B246A946A046F0BD039B002B3ED06A
:104500000E9B00200F999847030004000D000B43F9
:1045100035D000290ADA009A019B121BAB410092A8
:104520000193002B0ADB039B994685E700F082F993
:1045300024184D4100940195002DF4DA0123134C09
:104540005B4200930194EEE753465B005344033B08
:10455000D3189C70D119D25D002A00D05A705346EE
:104560000B706C73307D009A019B00F0EDF9814671
:104570000028A7D02100306800F00AFCA2E7002044
:10458000B4E701204042B1E7FFFFFF0FFFFFFF7FCD
:10459000407D7047F0B504000D0006267642F717FF
:1045A000C64636196F4100B584B08F4214D811D079
:1045B00000F040F932003B00121A8B41002B15DC51
:1045C000002B3ED02000290000F068F904B080BC28
:1045D000B846F0BD8642EBD90026002700F02AF944
:1045E00032003B00121A8B41002BE9DD00230293BD
:1045F0000193154B3200009314483B00FFF70CFF6A
:104600000028DFDB00239846BC46114A114F7B6A25
:104610009C4504D8B96A8E42D4D99C45D2D1116840
:10462000EFF3108072B60B68002BFCD0BFF35F8FE6
:104630001368BFF35F8F4146196080F3108820BF75
:10464000E5E7002ABED0D1E7B9400010382C0020A1
:10465000945600200040054070B5060000F0EAF8CE
:10466000FA2204000D00002330000021920003F024
:104670007BFC00196941002902DBFFF78BFF70BD4D
:10468000012001494042F8E7FFFFFF7FF0B5EFF35B
:104690000583CE46474680B505000C0085B0002B4B
:1046A00012D02C4A0020536A9C4203D8926A0130EF
:1046B000AA4204D305B0C0BCB946B046F0BDE01A6A
:1046C000421E9041C0B2F5E7234E02930193234B63
:1046D0000200009330000B00FFF79EFE031EE0DD9A
:1046E00020BF7168EFF3108772B60A68002AFCD009
:1046F000BFF35F8FDAB294463068427B62451DD0CB
:10470000FF221A4051008946016891448846494673
:10471000414403398978002913D0F1681B0A88467F
:104720004244013A1278DBB29A420FD07368BFF369
:104730005F8F00221A6087F31088B2E7FF221A40C9
:10474000EBE732699342F1D13161EFE7614600F066
:104750001FFBEBE700400540382C0020B94000105B
:10476000F0B5EFF30582D6464F4646461000C0B579
:104770001038EFF3108872B6214C2368002BFCD060
:10478000BFF35F8F0123190081401E4D1F00696335
:10479000AA461D4D29601D4D2E78AC463500C540FA
:1047A0002F402B4209D1BFF35F8F276088F3108819
:1047B000E0BCBA46B146A846F0BD5346144D5F6A08
:1047C00083005D59AF420ED3124A8E439B58624616
:1047D0001670BFF35F8F0022226088F31088002BD1
:1047E000E6D09847E4E70C4B92009C46624413687D
:1047F0001360BFF35F8F0023236088F31088D7E72F
:10480000280100D0004005403C700540DC560020E7
:10481000A4560020D4400020D03F054010B5010030
:10482000024A0348FFF79CF810BDC046F8E00110AB
:10483000D3560020034B596A0A00986A596A8A4283
:10484000FAD170470040054070B504000D00124ACF
:10485000536A1900966A536A8B42FAD130001900E4
:1048600024184D41AB4211D80ED02B000A494A6A98
:104870009A42FCD307D1084A02E0516A994202D118
:10488000916AA142F9D370BDA642EED90123012459
:104890006442E5175B42E9E700400540064A536A77
:1048A0009942FCD807D1044B02E05A6A914202D1E6
:1048B0009A6A8242F9D370470040054070B50400FF
:1048C0000D00EFF3108672B61A4A1368002BFCD065
:1048D000BFF35F8F002D1BD02000FFF717F916499B
:1048E00081420AD02000FFF719F901212000FFF7CB
:1048F000D1F80123A340114A1360114BA400E550E5
:10490000BFF35F8F00220B4B1A6086F3108870BDD7
:104910000B4BA200D5500122A2400A4920000B787F
:1049200093430B700449FFF717FA00212000FFF7AB
:10493000B1F8E5E7280100D0614700103860054074
:10494000D4400020DC560020F0B54F46D6464646FF
:10495000C0B507002C4C616A0D00A66A616AA942C5
:10496000FAD18B4208D805D00120E0BCBA46B14646
:10497000A846F0BDB242F7D9EFF3108A72B62348C9
:1049800001680029FCD0BFF35F8F0125BD4020499D
:104990001D4C8846097889462943C9B28C46414650
:1049A00060460870391D1B48890065630A51B900CB
:1049B0000B50216A0020294219D0616A0800A66ABA
:1049C000616A8142FAD18B4219D801D1B24216D81C
:1049D000CC4516D00C4B1F201D625D6301230740A0
:1049E000BB400D4A1E38136043464A461A70BFF357
:1049F0005F8F0022054B1A608AF31088B5E700200C
:104A0000F5E70120F3E7C04600400540280100D04B
:104A1000DC560020A456002080E200E0EFF3108C6A
:104A200072B60A490B68002BFCD0BFF35F8F0123DD
:104A30008340074A0748136202789A430270BFF323
:104A40005F8F00230B608CF310887047280100D023
:104A500000400540DC56002070B50500140016002B
:104A6000002915D00C00002A12D080686B68984786
:104A7000296800280ED073009B196200033B1219AD
:104A8000CB18033A9C7088188A5C002A15D10670EE
:104A9000200070BD63001B197200033B9219CB18F4
:104AA000033A9E7088188A5C002A02D10470340090
:104AB000EEE75A7004703400EAE75A700670E7E7D0
:104AC00030B583600023CCB243730133047342607A
:104AD0008373C4730D000068012C06D9421C013396
:104AE000DBB2137003329C42F9D1FF2129404B0005
:104AF0005918002340180338437030BDF8B5CE462E
:104B0000474606000C0080B5002907D04D00036819
:104B10006D18033D5A195778002F04D12000C0BCEE
:104B2000B946B046F8BD7900C919033988464344EF
:104B30005978894600215970517073683A002100F4
:104B4000806898473368002814D042469A189470B9
:104B500059195B5D002B00D053700F702700494638
:104B60003000FFF7CBFF390002003000FFF774FF81
:104B70000400D3E7424641465D19AF709A185B5C6A
:104B8000002B00D06B701470E9E7C046F0B55746B3
:104B90004546DE464E46E0B50D006B0001685B19E8
:104BA000DF1E0400C85D83B00192CA19002850D0EE
:104BB00043001B18033BCB185E78B446002E1AD175
:104BC000019E002E42D0E67B002E04D073009B197C
:104BD000CB18033B5D70A37B002B00D1A573E5735D
:104BE00000282FD10023537003B0F0BCBB46B2465F
:104BF000A946A046F0BD72006244033A89184A787B
:104C0000904600224A7091465A70010032002000FE
:104C1000FFF722FF43468246002B07D05B00216846
:104C20004344033BCB185A78002A16D142465146DA
:104C30002000FFF711FF2168019BCA19002BC2D188
:104C40000028CFD043001B18033BCB1800219970DC
:104C5000C8E7019B002BB6D1C4E750008018033889
:104C600009184878834648464870587041462000E5
:104C7000FFF7F2FE594680462000FFF73FFF41460E
:104C800002002000FFF7E8FE8046CFE7F0B5574668
:104C90004546DE464E46E0B583B00191457B0400B3
:104CA0006B0000685B19DF1EC15DC219002952D07C
:104CB0004B005B18033BC3185E78B446002E1CD132
:104CC000019E002E44D0E67B002E04D073009B1979
:104CD000C318033B5D70A37B002B00D1A573E57364
:104CE000002931D1002328005370617303B0F0BC58
:104CF000BB46B246A946A046F0BD72006244033AE4
:104D00008018427890460022427091465A702000E6
:104D10003200FFF7A1FE43468246002B07D05B001E
:104D200021684344033BCB185A78002A17D14246E6
:104D300051462000FFF790FE019B01002068C21938
:104D4000002BC0D10029CDD04B005B18033BC3180A
:104D500000209870C6E7019B002BB4D1C2E7500039
:104D600080180338091848788346484648705870B8
:104D700041462000FFF770FE594680462000FFF7AD
:104D8000BDFE414602002000FFF766FE8046CEE7EA
:104D900070B5040000292CD0437B8B422ED00568CF
:104DA00048004018033828188278002A21D0530080
:104DB0009B18033BEA5CEE188A4202D11BE0002AF2
:104DC00008D053009B18033BEB185A788A42F6D15F
:104DD00042785A7000230122837043702000FFF74D
:104DE000D5FE617B02002000FFF736FE60730120D4
:104DF00000E0002070BD43783370EBE7012219001A
:104E0000FFF7C4FE60730120F4E7C04670B51600DA
:104E10000D0019000400FFF7F7F82900701C03F0DB
:104E2000D1FB0023E681A5816060A36070BDC04610
:104E3000F8B5CE464746040080B506200E0000F0C7
:104E40007BFB051E51D0524B5249E21853425A4146
:104E50008023DB039C4692054F4B62441A604F4B04
:104E60001A6010008B689843FBD1494B8021E318EE
:104E70005A4253414A4A5B0049009952062000F0C9
:104E80005BFB3100C00002F041F8C30932D140227F
:104E9000012190466162A362256BEB0736D427009F
:104EA0008026E36A00232C3776013E4333600620D8
:104EB000256300F041FB4146800002F027F8236B98
:104EC00005009846DB073BD46022E36A5A406E2314
:104ED0001340336043462363802310229B013B43EE
:104EE0001A60304B23630323A3642800C0BCB94677
:104EF000B046F8BD2C4A93423FD900232B492C4A97
:104F00006162A362256B9046EB07C8D52200C023DF
:104F100030329B011343234A06201A60666AA26A54
:104F2000B601B61800F008FB224901F0EFFFB60207
:104F30000100300001F0EAFF0021FFF785FCAEE739
:104F40002200C02330329B011343164A06201A6008
:104F5000636AA26A9B019946914400F0EDFA4B46C0
:104F600014499B02994601F0D1FF0100484601F027
:104F7000CDFF0021FFF768FCA6E77F229901884654
:104F800010400130400819008044030082E7C04609
:104F90000080FCBF00C0004000E0004000F0004086
:104FA000B456002001030000FEFF0000FFFF0000D8
:104FB000C0FF3F004E0E0000F8B5040006200D00B3
:104FC00000F0BAFA2900C00001F0A0FFC30924D004
:104FD000224A934239D90023214A224E6262A362B7
:104FE000256BEB0720D52200C02330329B011343F1
:104FF0001D4A06201A60676AA26ABF01BF1800F046
:105000009BFA1A4901F082FFBF020100380001F04B
:105010007DFF0021FFF718FC06E0402601226262B6
:10502000A362256BEB07DED4E36A220080232C32D7
:105030005B011343002206201A60256300F07CFA0E
:105040003100800001F062FFF8BD7F221040013086
:1050500040089E011A0036180300E0E7FEFF00003A
:10506000FFFF0000C0FF3F00010300004E0E0000E4
:105070000539013AF8B5D2004C0105001443002B64
:1050800005D002222243012B2AD105331C432E6B6B
:10509000F3070BD4EA6A802362406E2414402A008E
:1050A0005B012C3213431C602E63F8BD2A00C02321
:1050B00030329B0113430B4A06201A606F6AAA6ABA
:1050C000BF01BF1800F038FA074901F01FFFBF0207
:1050D0000100380001F01AFF0021FFF7B5FBD9E706
:1050E0001400D4E7010300004E0E0000F8B54B1E7B
:1050F0009941066B05000C01F3070BD41023E96AF4
:105100002A004C401C4080232C325B0113431C605E
:105110002E63F8BD0200C02330329B0113430A4ABC
:105120001A60476A826ABF010620BF1800F004FABD
:10513000064901F0EBFEBF020100380001F0E6FE77
:105140000021FFF781FBD9E7010300004E0E0000AC
:10515000F0B54546DE4657464E46E0B583B001926F
:105160000C9A050088469A4200D976E01A0E9346BA
:105170001E023000002359460C9A01F005FF384BFF
:105180006C009C466419A400644463680700834271
:1051900000D260602B1FDBB29946012B37D9C023A8
:1051A00080229B01234312011A602E4BAD005959F6
:1051B0009A46002907D0586901F0A8FE431C580000
:1051C000C0180338FDD2019A236852015340E022EF
:1051D0001A4080235B0123431A604A46012A2FD9D3
:1051E000802380229B01234312011A603000002398
:1051F0003A005946676001F0C7FE534658510120F6
:1052000003B0F0BCBB46B246A946A046F0BD43463B
:10521000012BC4D1C02303229B0123431A60023A0D
:10522000A3681A42FCD0019A236852015A40E02335
:105230001A4080235B0123431A600A4AAD0092465C
:1052400042462168514003220A401A600122434627
:105250009A40A3681A42FCD0C2E70020D0E7C046BB
:1052600000800040F441002030B50C2083B000F0F5
:10527000C7F9FEF757FB00280ED0994B994A1A60E0
:105280005A609A60DA601A615A619A61DA611A6248
:10529000954A5A6203B030BD944CA06700F004FAFE
:1052A0000122934B1A60636C012BFCD10322914BBA
:1052B0001A608E4A936B012BFCD1013301218E4A77
:1052C0008E480093043300F03DF905238C4A009387
:1052D00001218C4800F036F98B4B5A68FF2A02D81E
:1052E000802252005A6080227D4C824B216912013B
:1052F000854D1A60002907D0606901F007FE431C44
:105300005800C0180338FDD2E0217F4B02201A68F4
:105310001140802252012A4311601968484003213C
:105320000140116004219A681142FCD08022802142
:1053300092012A4309011160802252005A60734B86
:105340002361734B5968FF2900D85A600321684ACA
:105350006F4B116002399A681142FCD0E0201A6844
:105360001040802252011A431060186848400321FF
:1053700001400220116066498A681042FCD08022F8
:1053800092011343802212011A608022614B520065
:105390004A606361604B5968FF2900D85A608022D7
:1053A0005E4BE16912015C4D1A60002907D060690B
:1053B00001F0ACFD431C5800C0180338FDD2E022B8
:1053C00055490B681A4080235B012B431A608023E8
:1053D00080229B012B4312011A608022414B520014
:1053E0004A60E3614E4B5968FF2900D85A60802219
:1053F0004C4B216A12014A4D1A60002907D060699E
:1054000001F084FD431C5800C0180338FDD2E0228F
:1054100043490B681A4080235B012B431A608023A9
:1054200080229B012B4312011A60802380225B00A3
:105430004B602C4BD20223623B4B5968914200D205
:105440005A608022394B616A1201374D1A60002977
:1054500007D0606901F05AFD431C5800C01803389A
:10546000FDD2E02230490B681A4080235B012B43B8
:105470001A60802380229B012B4312011A60802333
:10548000DB024B60184B6362294B5A68FF2A02D833
:10549000802252005A608022264BA1691201244DBD
:1054A0001A60002907D0606901F030FD431C5800E4
:1054B000C0180338FDD2E0221D490B681A40802332
:1054C0005B012B431A60802380229B012B43120136
:1054D0001A6080235B004B600E4BA361DAE6C04686
:1054E000F4410020006CDC021BB70000008000408B
:1054F0003CB0004030B00040002F685900800240AE
:10550000008C864700C0024030800040001BB7007E
:105510003C800040405973075480004054B0004024
:105520006080004060B000406C8000406CB0004083
:105530004880004048B00040014B8000C058704790
:10554000F4410020F8B5040021481D0017000E00AA
:1055500001F0DCFC0100380001F0D8FC069B2904B6
:105560001B0319432368002B20DB1A4B1A4DE2184A
:1055700053425A4180235B019C461203174B6244FD
:105580001A60174B1A601700AB689F43FBD1C0220B
:10559000231D92011A4321232660A0601360236813
:1055A000002BFCDA0823E1601360F8BD3F2322687A
:1055B0001340B342D9D1A3681B051B0D8342D4D13C
:1055C000EE22E368D20213408B42CED1EDE7C04613
:1055D000001BB7000040FDBF00C0004000E00040DD
:1055E00000F00040044B00011B685840F0231840B5
:1055F000024B18607047C04600400640005006400D
:105600008023024A9B000343D36270470080054019
:1056100010B5140080221B4BD2051A6000281AD046
:105620000123194A1843194BDA61194A42401A6298
:10563000596298628022134BD2051A601549164AA6
:105640001160E022D2041A60002C07D18022134B93
:1056500012061A6010BD0D4BD861EBE763011B1BEE
:105660009A008023121912015B049A4200D30C4A5B
:105670000C4B1A60054B5A608022084BD2051A6009
:10568000E8E7C04600B00540D3C007B00080054041
:105690002D3FF84FFCFF01000820014000A005400D
:1056A000FFFFFF0060520020AA23064A1B0113607F
:1056B0002133FF33D3600449044B19605368002B36
:1056C000FCDA70470040024000B0FA00006002407F
:1056D0002C4B2D4A70B51A602C4A2D4B2D491A605F
:1056E00014008B689C43FBD12B4D2C4EB54208D245
:1056F000013E761BB60808CD984723000134B3421B
:10570000F9D1FFF7B1FD264A214B1A60214A93686F
:10571000DB43DB01DD09002BF9D14022214B224C78
:10572000224E9A675A671A67DA66B44208D223682B
:105730002000002B20D00834FEF77CFCB442F6D3C6
:105740001B4E1C4CC022A168300002F099FFA660DD
:10575000FEF776F9FEF732FCFEF724FE164C174EE4
:10576000B44208D2013E361BB60808CC98472B003D
:1057700001359E42F9D170BD0834FEF74DFCB442AC
:10578000D5D3DDE700E00040BFCDFBFEFE7F3C004F
:1057900000F0004000C000402835002038350020CF
:1057A000FFFFFF0100F001401035002028350020E8
:1057B0000000002000ED00E03835002044350020D6
:1057C00000BEFDE7094A03001068002805D008491B
:1057D000C3188B4207D81360704706480449C318A2
:1057E00010608B42F7D901204042F5E7584E002067
:1057F00000000420E05600200020704701204042B5
:105800007047C04610B5FFF7DBFFC0460FB400B5C8
:10581000084883B003F0A4F8049B002B07D005A927
:105820001800019101F0F2FA034803F099F8012001
:10583000FFF7C6FF1CE101109CDE011010B5014806
:10584000FFF7E4FF2CE101109A4200D28854704720
:105850007047C046F8B557464E464546DE46E0B569
:1058600099460A9B07009A460D9B88469346150069
:105870000B9E9B0710D10C9B9E420DD29D1B1400CA
:105880000E005D4422004B46013431002020B84711
:10589000A542F7D1B0460B9E002E27D0444675197D
:1058A0005346AA1B013E985D21004B46B847002E87
:1058B000F6D123002C0098460D9B9B070FD55B4625
:1058C000E51A0C9BAB420AD94646984622004B4645
:1058D000310020200135B8470134A845F6D8200012
:1058E000F0BCBB46B246A946A046F8BD2C00E3E793
:1058F000F0B54F464646D646C0B584B098460EAB86
:105900001B78129F994694460D9C109B119EBA07D6
:1059100025D4002E4BD19C4200D3BFE001223A4057
:1059200092461F2C00D9B8E00C9A551E302201E097
:10593000202C03D001342A55A342F9D85246002A1C
:105940000DD0A6420BD9202C44D00C9A551E3022E3
:1059500001E0202C3ED001342A55B442F9D1FA0698
:105960004DD57A053FD4002C39D10F9B102B00D197
:1059700079E00F9B022B00D18AE030230C9A01249E
:1059800013704B46002B3FD02D230C9A1355013436
:105990000C9B624600930397434602960194FFF7DF
:1059A00059FF04B0E0BCBA46B146A846F0BD01229A
:1059B00015003D40AA463A422FD04A46002A02D15D
:1059C0000C323A4200D0013E9C42BAD21F2CABD9D5
:1059D000202E27D92024FA06DAD57A0503D4A3424B
:1059E0002DD0A6422BD00F9B102B32D0022B20D0D3
:1059F000202CCDD030220C9B1B191A700134202C86
:105A0000C6D04B46002BBFD17B070DD43B07BFD57B
:105A100020230C9A13550134BAE79C429FD21F2CC5
:105A200000D881E720249AE72B230C9A13550134E0
:105A3000AEE7202CACD00C9B1B1901343AE0631E5E
:105A4000012C92D00F9A102A2AD0022A2FD01C00A3
:105A5000D0E7BB060ED4202C9AD00C9B1A19013427
:105A600078231370C4E7BB060DD478230C9A012465
:105A70001370BFE7202C00D18AE758220C9B1B191A
:105A80001A700134B4E758230C9A01241370B1E75B
:105A90000C9A603301241370ACE7202400265EE7E3
:105AA000023CBA06E9D40C9A12191C00D8E70C9AE9
:105AB0009246534462221A709AE7C04610B50028F5
:105AC00000D110BD02F000FFFBE7C0460B0010B58F
:105AD000002802D049681B68984710BDF0B5DE4623
